:020000040000FA
:080000008301000000006128EB
:020008000800EE
:06000A001010050820069D
:10001000013903191128851D26280B106300851D41
:10002000262852205220050820060139031D0528E4
:1000300083168510831285100508200601390319DF
:100040001C2885148316851483120528051A052893
:100050000330A1008E018F018C011014051A0528B0
:10006000851905280C1C2E288C01A10B2E28101098
:1000700083163C3085008312200885000830A200DA
:100080005D20851E4728051A4728851D432820081E
:10009000033A850083163F30850083123C30A2006E
:1000A0005D20052881011430A1008B160B110B1D5A
:1000B0005728A10B56288B1208005220A20B5D284E
:1000C000080085010730990008308B008316FF2354
:1000D00090003F3085000930960006309500810180
:0E00E000831230309000A001051C201405286A
:0200EE000034DC
:0200F0000034DA
:02400E00C43FAD
:00000001FF
