:020000040000FA
:08000000830100000000B92893
:020008000800EE
:06000A000B100508400682
:100010000139031D6300A520A5200508400601390C
:10002000031D05287A204A30A100A52005084006B6
:100030000139031D5328A10B15283008B2000C30DC
:10004000B300B0182528B00A2628B01061204A3025
:10005000A100A520050840060139031D4628A10B73
:100060002928B30B21283208B0007A203430A100AF
:10007000B520050840060139031D43281030B0079C
:1000800030138120362895206120052895203018CE
:100090008710301C8714612030083106033903199A
:1000A000052885190528831685108312851061207F
:1000B0001A30A100B520DB283108B000952061205E
:1000C0000528B018732830186C2807080F39103A23
:1000D0008719303A8700080007080F39203A871936
:1000E000303A8700080007080F39303A8719303A4C
:1000F0008700080007080F39003A8719303A87004F
:100100000800B01E6C20B01A65201A30A100B5207E
:100110007A201A30A100B520301E6C20301A6520DC
:100120001A30A100B5207A20080030083339831630
:100130009A009B011C1555309D00AA309D009C140F
:100140009C18A0281C118312080081018316010845
:10015000F039810083121430A0008B160B110B1D97
:10016000AF28A00BAE288B120800A520A10BB52844
:100170000800850187010730990008308B0083163D
:10018000FF2390000B308500083087000130960077
:100190000130950081018312C101B0010310831663
:1001A0009B011C141A0883123339B000300830390F
:1001B000051901388500B018EC28B0103018E62871
:1001C00087140711051507103010F228871007153E
:1001D000051507103014F2288714071105110714AC
:1001E000B014301095206120851483168514831275
:1001F000B1013008B100411805284114C001051CA7
:040200004014052879
:04020400003400348E
:02400E00D43F9D
:024200000000BC
:00000001FF
