:020000040000FA
:08000000830100000000BA2892
:020008000800EE
:06000A000B100508400682
:100010000139031D6300A620A6200508400601390A
:10002000031D05287B204A30A100A62005084006B4
:100030000139031D5328A10B15283008B2000C30DC
:10004000B300B0182528B00A2628B01061204A3025
:10005000A100A620050840060139031D4628A10B72
:100060002928B30B21283208B0007B203430A100AE
:10007000B620050840060139031D43281030B0079B
:1000800030138220362896206120052896203018CB
:100090008710301C8714612030083106033903199A
:1000A000052885190528831685108312851061207F
:1000B0001A30A100B620DC283108B000962061205B
:1000C0000528B018662830186D28742807080F39DD
:1000D000103A8719303A8700080007080F39203A8C
:1000E0008719303A8700080007080F39303A871916
:1000F000303A8700080007080F39003A8719303A6C
:1001000087000800B01E6D20B01A66201A30A100CA
:10011000B6207B201A30A100B620301E6D20301A88
:1001200066201A30A100B6207B2008003008333941
:1001300083169A009B011C1555309D00AA309D0026
:100140009C149C18A1281C1183120800810183169D
:100150000108F039810083121430A0008B160B11B6
:100160000B1DB028A00BAF288B120800A620A10BF6
:10017000B6280800850187010730990008308B00F8
:100180008316FF2390000B30850008308700013074
:1001900096000130950081018312C101B001031066
:1001A00083169B011C141A0883123339B0003008DF
:1001B0003039051901388500B018ED28B010301815
:1001C000E72887140711051507103010F32887104A
:1001D0000715051507103014F328871407110511AA
:1001E0000714B014301096206120851483168514EE
:1001F0008312B1013008B100411805284114C00133
:06020000051C4014052856
:04020600003400348C
:02400E00D43F9D
:024200000000BC
:00000001FF
