:020000040000FA
:080000008301000000008C28C0
:020008000800EE
:06000A000B100508400682
:100010000139031D63007820782005084006013966
:10002000031D052862204A30A100782005084006FB
:100030000139031D3A28A10B1528B0182128B00A50
:100040002228B01048204A30A10078200508400638
:100050000139031D2E28A10B25281D2869203018E1
:100060008510301C851448203008310603190528F6
:10007000051A0528831605118312051148201A3028
:10008000A1008820A8283108B00069204820052850
:10009000B0184D28301854285B2807080F39203A2B
:1000A0008719303A8700080007080F39103A871976
:1000B000303A8700080007080F39303A8719303A7C
:1000C0008700080007080F39003A8719303A87007F
:1000D0000800300883169A009B011C1555309D00BE
:1000E000AA309D009C149C1873281C1183120800D0
:1000F000810183160108F039810083121430A000B9
:100100008B160B110B1D8228A00B81288B12080067
:100110007820A10B88280800850187010730990005
:1001200008308B008316FF2390003D308500083097
:100130008700013096003130950081018312C101A2
:10014000B001031083169B011C141A088312B0001F
:10015000B018BA283018B32885140710871407116F
:100160000030B000C0288510071487140711013033
:10017000B000C02885140710871007150230B000A2
:10018000692048200515831605158312B101300832
:10019000B100411805284114C001051C4014052870
:0401A00000340034F3
:02400E00D43F9D
:024200000000BC
:00000001FF
