:020000040000FA
:080000008301000000008B28C1
:020008000800EE
:06000A000B100508400682
:100010000139031D63007720772005084006013968
:10002000031D052861204A30A100772005084006FD
:100030000139031D3A28A10B1528B0182128B00A50
:100040002228B01048204A30A10077200508400639
:100050000139031D2E28A10B25281D2868203018E2
:100060008510301C851448203008310603190528F6
:10007000051A0528831605118312051148201A3028
:10008000A1008720A7283108B00068204820052853
:10009000B0185A283018532807080F39203A871902
:1000A000303A8700080007080F39103A8719303AAC
:1000B0008700080007080F39303A8719303A87005F
:1000C000080007080F39003A8719303A87000800FE
:1000D000300883169A009B011C1555309D00AA30EC
:1000E0009D009C149C1872281C1183120800810129
:1000F00083160108F039810083121430A0008B169A
:100100000B110B1D8128A00B80288B120800772073
:10011000A10B872808008501870107309900083066
:100120008B008316FF2390003D3085000830870048
:10013000013096003130950081018312C101B00178
:10014000031083169B011C141A088312B000B01808
:10015000B9283018B2288514071087140711003009
:10016000B000BF2885100714871407110130B000B4
:10017000BF2885140710871007150230B0006820CB
:1001800048200515831605158312B1013008B1000A
:0E019000411805284114C001051C4014052823
:02019E0000342B
:0201A000003429
:02400E00D43F9D
:024200000000BC
:00000001FF
